:100000000C9438000C9442000C9442000C94420072
:100010000C9442000C9442000C9442000C94420058
:100020000C9442000C9442000C9442000C94420048
:100030000C9442000C9442000C9442000C94420038
:100040000C9442000C9442000C9442000C94420028
:100050000C9442000C9442000C9442000C94420018
:100060000C9442000C9442000C9442000C94420008
:1000700011241FBECFEFD4E0DEBFCDBF0E944400ED
:100080000C9467000C9400008BB381608BBB80E004
:1000900090E0DC0103C00196A11DB11D803A26E865
:1000A000920721E0A207B105B0F38BB38E7F8BBB23
:1000B00080E090E0DC0103C00196A11DB11D803AF3
:1000C00026E8920721E0A207B105B0F3DDCFF8944E
:0200D000FFCF60
:00000001FF
